:100000000C9463000C948B000C948B000C948B006C
:100010000C948B000C948B000C948B000C948B0034
:100020000C948B000C948B000C948B000C948B0024
:100030000C948B000C948B000C948B000C948B0014
:100040000C9430040C948B000C946B030C944503BB
:100050000C948B000C948B000C948B000C948B00F4
:100060000C947A040C948B000000000025002800FA
:100070002B0000000000240027002A0004040404D0
:100080000404040402020202020203030303030342
:10009000010204081020408001020408102001021F
:1000A00004081020000000002300260029000000A2
:1000B0000008000201000003040700000000000027
:1000C0000000BC0AB60A11241FBECFEFD8E0DEBF85
:1000D000CDBF12E0A0E0B1E0EEE7FBE102C0059089
:1000E0000D92A03AB107D9F724E0A0EAB2E001C02E
:1000F0001D92AA31B207E1F710E0C2E6D0E004C0D9
:100100002197FE010E942D0BC136D107C9F70E942D
:1001100093060C94B20D0C940000CF93DF93EC0186
:10012000FB018617970761F0608171816115710588
:1001300029F0448155810E940F0302C00E94FD02F4
:10014000CE01DF91CF9108950E942A0DEF92FF9288
:100150000F931F93CF93DF93FC01248135816115A9
:10016000710511F480E019C041155105A9F07B011A
:10017000EC018A01020F131FB8010E94D6028823E6
:1001800089F3288139818C819D81B701820F931F6A
:100190000E94380D1D830C8381E0DF91CF911F9168
:1001A0000F91FF90EF900895CF92DF92EF92FF9220
:1001B0000F931F93CF93DF936C017A018B01C0E003
:1001C000D0E0CE15DF0589F0D8016D918D01D60103
:1001D000ED91FC910190F081E02DC6010995892BEC
:1001E00011F47E0102C02196ECCFC701DF91CF91BF
:1001F0001F910F91FF90EF90DF90CF900895FC0139
:10020000918D828D981761F0828DDF01A80FB11D4D
:100210005D968C91928D9F5F9F73928F90E0089571
:100220008FEF9FEF0895FC01918D828D981731F02B
:10023000828DE80FF11D858D90E008958FEF9FEF7F
:100240000895FC01918D228D892F90E0805C9F4F55
:10025000821B91098F739927089585E693E00E9488
:10026000210121E0892B09F420E0822F0895FC016F
:10027000848DDF01A80FB11DA35ABF4F2C91848D2F
:1002800090E001968F739927848FA689B7892C9364
:10029000A089B1898C9180648C93938D848D9813FF
:1002A00006C00288F389E02D80818F7D80830895C8
:1002B000EF92FF920F931F93CF93DF93EC0181E0B6
:1002C000888F9B8D8C8D981305C0E889F989808172
:1002D00085FD24C0F62E0B8D10E00F5F1F4F0F73AE
:1002E0001127E02E8C8DE8120CC00FB607FCFACF58
:1002F000E889F989808185FFF5CFCE010E94370119
:10030000F1CF8B8DFE01E80FF11DE35AFF4FF08214
:100310000B8FEA89FB898081806207C0EE89FF89A3
:100320006083E889F98980818064808381E090E03E
:10033000DF91CF911F910F91FF90EF900895CF9390
:10034000DF93EC01888D8823C9F0EA89FB898081DD
:1003500085FD05C0A889B9898C9186FD0FC00FB6AF
:1003600007FCF5CF808185FFF2CFA889B9898C91F0
:1003700085FFEDCFCE010E943701E7CFDF91CF910E
:10038000089580E090E0892B29F00E942D018111D1
:100390000C9400000895833081F028F4813099F0A6
:1003A0008230A1F008958730A9F08830B9F0843008
:1003B000D1F4809180008F7D03C0809180008F7781
:1003C00080938000089584B58F7702C084B58F7DB7
:1003D00084BD08958091B0008F7703C08091B000F4
:1003E0008F7D8093B00008953FB7F89480911603F5
:1003F00090911703A0911803B091190326B5A89BFB
:1004000005C02F3F19F00196A11DB11D3FBFBA2FA6
:10041000A92F982F8827820F911DA11DB11DBC0106
:10042000CD0142E0660F771F881F991F4A95D1F7CB
:10043000089585ED8093BC008091BC0084FDFCCFC5
:100440001092400308954091EC02262F30E0240FD3
:10045000311D21323105DCF4209140032430C9F4F0
:10046000FC0180E090E0861758F43091EC02219175
:10047000DC01A653BD4FA30FB11D2C930196F3CF02
:100480008091EC02680F6093EC0280E0089581E0B7
:10049000089582E008950895E091A1028091A0025C
:1004A000E81730F4F0E0EE55FD4F808190E00895BC
:1004B0008FEF9FEF08959091A1028091A00298176D
:1004C00050F4E92FF0E0EE55FD4F208130E09F5FC2
:1004D0009093A10202C02FEF3FEFC90108958091D0
:1004E000A00290E02091A102821B91090895CF9271
:1004F000DF92EF92FF920F931F93CF93DF937C01D4
:10050000262F972F8A0180914103882391F0C62FCF
:10051000D72F6E01C40ED51ECC15DD0571F0699183
:10052000D701ED91FC910190F081E02DC701099573
:10053000F3CF642F822F0E942302C801DF91CF9155
:100540001F910F91FF90EF90DF90CF900895CF9380
:10055000DF931F92CDB7DEB7698320914103222339
:10056000D1F020916403203240F021E030E0FC0122
:100570003383228380E090E015C080914203E82F0E
:10058000F0E0ED5BFC4F998190838F5F8093420395
:100590008093640305C061E0CE0101960E942302AE
:1005A00081E090E00F90DF91CF9108950F931F931A
:1005B000CF93DF93EC0188819981009729F02A81FC
:1005C0003B812617370788F48B016F5F7F4F0E94AE
:1005D000600C009761F0998388831B830A832C81C8
:1005E0003D81232B11F4FC01108281E001C080E0E9
:1005F000DF91CF911F910F910895CF93DF93EC017D
:1006000088819981009711F00E94C80B1982188285
:100610001D821C821B821A82DF91CF910895EF9276
:10062000FF920F931F93CF93DF93EC017B018A011D
:10063000BA010E94D602811104C0CE010E94FD02BF
:1006400007C01D830C83B701888199810E94380DF2
:10065000CE01DF91CF911F910F91FF90EF90089500
:10066000FC0111821082138212821582148261159C
:10067000710551F0FB0101900020E9F73197AF01BE
:10068000461B570B0C940F0308951F920F920FB641
:100690000F9211242F933F934F935F936F937F9308
:1006A0008F939F93AF93BF93EF93FF9385E693E070
:1006B0000E943701FF91EF91BF91AF919F918F9170
:1006C0007F916F915F914F913F912F910F900FBE4E
:1006D0000F901F9018951F920F920FB60F92112432
:1006E0002F938F939F93EF93FF93E0917503F09176
:1006F00076038081E0917B03F0917C0382FD12C040
:10070000908180917E038F5F8F7320917F0382178A
:1007100051F0E0917E03F0E0EB59FC4F958F809310
:100720007E0301C08081FF91EF919F918F912F9166
:100730000F900FBE0F901F901895CF93DF93282F27
:1007400030E0F901E255FF4F8491F901E057FF4F86
:10075000D491F901E458FF4FC491CC2391F0811159
:100760000E94CB01EC2FF0E0EE0FFF1FEC55FF4F86
:10077000A591B491EC91ED2381E090E021F480E02B
:1007800002C080E090E0DF91CF9108951F93CF9356
:10079000DF93282F30E0F901E255FF4F8491F901F2
:1007A000E057FF4FD491F901E458FF4FC491CC2397
:1007B000C9F0162F81110E94CB01EC2FF0E0EE0F53
:1007C000FF1FE859FF4FA591B4918FB7F89411110D
:1007D00005C09C91ED2FE095E92302C0EC91ED2B33
:1007E000EC938FBFDF91CF911F9108958F929F92CD
:1007F000AF92BF92CF92DF92EF92FF926B017C019A
:100800000E94F4014B015C01C114D104E104F10424
:10081000F1F00E94F401DC01CB0188199909AA09C1
:10082000BB09883E9340A105B10570F321E0C21ACF
:10083000D108E108F10888EE880E83E0981EA11C1B
:10084000B11CC114D104E104F10419F7DDCFFF900C
:10085000EF90DF90CF90BF90AF909F908F900895D2
:100860001F920F920FB60F9211242F933F938F93E5
:100870009F93AF93BF938091120390911303A09124
:100880001403B09115033091110323E0230F2D378A
:1008900020F40196A11DB11D05C026E8230F029684
:1008A000A11DB11D20931103809312039093130394
:1008B000A0931403B093150380911603909117032E
:1008C000A0911803B09119030196A11DB11D809349
:1008D000160390931703A0931803B0931903BF91C5
:1008E000AF919F918F913F912F910F900FBE0F90DD
:1008F0001F9018951F920F920FB60F9211242F93ED
:100900003F934F935F936F937F938F939F93AF9397
:10091000BF93EF93FF938091B900887F803609F4ED
:100920009CC068F5883209F45BC090F4803109F40A
:1009300054C038F4882309F4F6C0883009F44DC057
:10094000F6C0883109F44CC0803209F45DC0EFC0B4
:10095000803409F468C048F4803309F455C0883302
:1009600009F0E5C080933E03D8C0803509F44FC03C
:10097000883509F45DC0883409F0D9C0D6C08839FB
:1009800009F4C7C0A8F4883709F467C038F488367A
:1009900009F463C0803709F460C0C9C0883809F41D
:1009A000B8C0803909F45FC0803809F0C0C05BC0AE
:1009B000803B09F486C038F4803A09F466C0883A6E
:1009C00009F47FC0B4C0803C09F4A7C0883C09F496
:1009D000A4C0883B09F48AC0AAC080911B0310C040
:1009E00090913D0380913C03981770F5E0913D0391
:1009F00081E08E0F80933D03F0E0E45EFC4F808148
:100A00008093BB0085EC86C080933E038EC0E0914E
:100A10003D0381E08E0F80933D038091BB00F0E0A9
:100A2000E45EFC4F808390913D0380913C036EC057
:100A3000E0913D0381E08E0F80933D038091BB00E8
:100A4000F0E0E45EFC4F808380913F0381116DC034
:100A500081E080931A0384EA61C083E080934003BD
:100A600010921003CFCF80911003803208F051C054
:100A7000E091100381E08E0F809310038091BB0002
:100A8000F0E0E051FD4F8083BDCF85EC8093BC004A
:100A90001092400380911003803230F4E0911003F3
:100AA000F0E0E051FD4F10826091100370E0E091A2
:100AB000EE02F091EF0280EF92E0099510921003A0
:100AC00036C084E0809340031092ED021092EC0255
:100AD000E091EA02F091EB0209958091EC0281111C
:100AE00005C081E08093EC021092CA02E091ED0211
:100AF00081E08E0F8093ED02F0E0E653FD4F8081A0
:100B00008093BB009091ED028091EC02981708F45D
:100B100079CF85E88093BC000AC085EC8093BC0047
:100B20001092400304C010923E030E941902FF91EC
:100B3000EF91BF91AF919F918F917F916F915F9155
:100B40004F913F912F910F900FBE0F901F901895CE
:100B5000FC01908190539A3008F090E0818180539D
:100B60002AE0929F800D11240895009769F0FC01FE
:100B700001900020E9F73197AF01481B590BBC01E8
:100B800085E693E00C94D40080E090E008958CE931
:100B900092E00C94B505CF93DF930E94B505EC016C
:100BA0000E94C7058C0F9D1FDF91CF910895209162
:100BB000640390916303213208F04AC0809140039E
:100BC0008111FCCF32E03093400331E030933F039A
:100BD0003FEF30933E0310923D0320933C03A3E488
:100BE000B3E04CE153E0FA013E2F341B321718F406
:100BF0003D913193F9CF10921B0320911B03990F64
:100C0000922B90931B0390911A03913061F41092F0
:100C10001A0390911B039093BB009091BC0093FD2D
:100C2000F8CF95EC01C095EE9093BC0090914003F5
:100C30009230E1F390913E039F3F79F080913E0323
:100C4000803241F080913E03803331F084E005C072
:100C500081E003C082E001C083E010924203109261
:100C600064031092410308958F929F92AF92BF92B6
:100C70000F931F93CF93DF93CDB7DEB7A1970FB636
:100C8000F894DEBF0FBECDBF19A2423008F44AE08F
:100C90008E010F5D1F4F842E912CA12CB12CA5012C
:100CA00094010E940B0BE62FB901CA0101501109F2
:100CB000EA3014F4E05D01C0E95CD801EC93232B29
:100CC000242B252B61F7C8010E94B505A1960FB60C
:100CD000F894DEBF0FBECDBFDF91CF911F910F9172
:100CE000BF90AF909F908F900895E0916503F09131
:100CF00066030190F081E02D682F85E693E009946A
:100D0000CF93DF93FC01448155816081718185E639
:100D100093E00E94D400EC010E94C7058C0F9D1F38
:100D2000DF91CF910895CF93DF93CDB7DEB72897AA
:100D30000FB6F894DEBF0FBECDBF789484B5826045
:100D400084BD84B5816084BD85B5826085BD85B56F
:100D5000816085BD80916E00816080936E001092ED
:100D60008100809181008260809381008091810068
:100D700081608093810080918000816080938000F9
:100D80008091B10084608093B1008091B000816057
:100D90008093B00080917A00846080937A00809183
:100DA0007A00826080937A0080917A0081608093DB
:100DB0007A0080917A00806880937A001092C10056
:100DC000E7E9F0E02491E3E8F0E08491882399F0EA
:100DD00090E0880F991FFC01EE58FF4FA591B49148
:100DE000FC01E859FF4F859194918FB7F894EC91ED
:100DF000E22BEC938FBF60E087E00E94C603E3E93B
:100E0000F0E02491EFE7F0E084918823C9F090E0CE
:100E1000880F991FFC01EE58FF4F45915491FC013A
:100E2000E859FF4FA591B4919FB7F894FA018081DA
:100E30002095822380838C91E22FE823EC939FBF3F
:100E40001092A1021092A002109242031092640329
:100E50001092400301E000933F0310921A0361E0F7
:100E600082E10E94C60361E083E10E94C603809193
:100E7000B9008E7F8093B9008091B9008D7F8093F7
:100E8000B90088E48093B80085E48093BC008FE2C9
:100E900091E00E94A805182F8AE291E00E94A8051F
:100EA000F82E82E391E00E94A805E82E85E391E008
:100EB0000E94A805D82E88E391E00E94A805C82EBC
:100EC0000093410388E680936303109242031092DB
:100ED000640360E082E094E00E94A7020AE08C2DA7
:100EE000602F0E94FF0A482F880F480F440F642F7D
:100EF0006C0D82E094E00E94A7028D2D602F0E946D
:100F0000FF0A382F880F380F330F632F6D0D82E0E3
:100F100094E00E94A7028E2D602F0E94FF0A282FC6
:100F2000880F280F220F622F6E0D82E094E00E943E
:100F3000A70260E082E094E00E94A7028F2D602F5C
:100F40000E94FF0A982F880F980F990F692F6F0D35
:100F500082E094E00E94A70264E082E094E00E94B4
:100F6000A702812F602F0E94FF0A682F660F680F6B
:100F7000660F610F82E094E00E94A70260E082E0C9
:100F800094E00E94A7020E94D7051092C902109215
:100F9000C8028FEF9FEF9093C7028093C602909391
:100FA000C5028093C402E0917503F091760382E05C
:100FB0008083E0917103F09172031082E0917303DA
:100FC000F09174038FEC808310927D03E09179039C
:100FD000F0917A0386E08083E0917703F0917803C3
:100FE000808180618083E0917703F0917803808134
:100FF00088608083E0917703F09178038081806836
:101000008083E0917703F091780380818F7D8083E6
:101010008BE391E00E94CB058FE491E00E94CB0529
:1010200099249394F8E68F2E77247A94A6E06A2E7A
:10103000B2EAEB2EB2E0FB2E1AE5C12ED12C0FEF57
:101040001FEF8091C8029091C902892B09F040C11D
:1010500040E050E06EE972E08EE094E00E940F0301
:101060008091C6029091C702019609F093C085E66F
:1010700093E00E942101181619060CF01BC185E6A9
:1010800093E00E94210118161906A4F585E693E065
:101090000E94FF00B82E1A8219821C821B821E82B7
:1010A0001D826EE074E0CE0101960E948D00BF8229
:1010B000188641E050E0BE01695F7F4FCE01019686
:1010C0000E94A600811104C0CE0101960E94FD027B
:1010D000BE016F5F7F4F8EE094E00E948D0089819A
:1010E0009A810E94C80B63E070E080E090E00E946B
:1010F000F603C5CF80910E0490910F04009719F06C
:101100000E943F0D03C060E070E0CB017093C70206
:101110006093C6026831710548F01093C7020093CE
:10112000C6028DE691E00E94CB052BC06EE971E00E
:10113000CE0101960E943003409112045091130495
:1011400060910E0470910F04CE0101960E94A600DA
:10115000811104C0CE0101960E94FD0240E250E0E0
:1011600062EB71E0CE0101960E94A600882309F48B
:10117000E7C1CE0101960E94800689819A810E9472
:10118000C80B40E050E06EE972E08EE094E00E940F
:101190000F0390C08091C4029091C502019609F09E
:1011A00089C085E693E00E942101181619060CF00B
:1011B00081C085E693E00E94210118161906A4F566
:1011C00085E693E00E94FF00B82E1A8219821C82E5
:1011D0001B821E821D826EE074E0CE0101960E9489
:1011E0008D00BF82188641E050E0BE01695F7F4FED
:1011F000CE0101960E94A600811104C0CE01019685
:101200000E94FD02BE016F5F7F4F8EE094E00E945E
:101210008D0089819A810E94C80B63E070E080E0B4
:1012200090E00E94F603C5CF80910E0490910F04C8
:10123000009719F00E943F0D03C060E070E0CB0101
:101240007093C5026093C4026C33710548F010932B
:10125000C5020093C40283ED91E00E94CB052AC031
:1012600068E072E0CE0101960E94300340911204C2
:101270005091130460910E0470910F04CE010196F9
:101280000E94A600811104C0CE0101960E94FD02B9
:10129000CE0101960E94800689819A810E94C80B26
:1012A0008EE192E00E94CB0581E090E09093C9022C
:1012B0008093C80283E00E949D03019709F03DC11D
:1012C0008091C8029091C902019709F036C13DC1D1
:1012D0009092410380926303109242031092640340
:1012E00060E082E094E00E94A7020E94D70580910E
:1012F00040038111FCCF9092400390923F03709283
:101300003E0310923D0360923C0390921B03809138
:101310001B03806D80931B0380911A03813061F45D
:1013200010921A0380911B038093BB008091BC0034
:1013300083FDF8CF85EC01C085EE8093BC008091E1
:1013400040038130E1F380913D03873018F48091B0
:101350003D0301C087E0ACE1B3E0E2EAF2E09E2F9A
:101360009E19981718F49D919193F9CF1092A102AC
:101370008093A00282E094E00E945B029C013327EC
:1013800094E0359527959A95E1F73AEF232E582E5C
:10139000229E500C112482E094E00E945B029C018A
:1013A000332744E0359527954A95E1F7B82E229EDC
:1013B000B00C112482E094E00E945B029C01332770
:1013C00054E0359527955A95E1F7A82E229EA00C5A
:1013D000112482E094E00E945B0282E094E00E948B
:1013E0005B029C01332764E0359527956A95E1F708
:1013F000482E229E400C112482E094E00E945B0261
:101400009C01332774E0359527957A95E1F7382EBE
:10141000229E300C112482E094E00E945B029C0129
:101420003327E4E035952795EA95E1F7229E800D74
:101430001124682F70E06053784F072E000C880B42
:10144000990B4AE00E9434068FE20E947506632DD4
:1014500070E080E090E04AE00E9434068FE20E9453
:101460007506642D70E080E090E04AE00E9434064A
:1014700080E20E9475066A2D70E080E090E04AE00C
:101480000E9434068AE30E9475066B2D70E080E0AE
:1014900090E04AE00E9434068AE30E947506652DBA
:1014A00070E080E090E04AE00E9434060E94C705A8
:1014B0008091C2029091C302892BD1F48A2D90E0D1
:1014C0002091C6023091C7028217930789F48B2DB1
:1014D00090E02091C4023091C5028217930741F435
:1014E000D092C302C092C20261E087E00E94C603AC
:1014F0008091C2029091C3021816190674F40197E4
:101500009093C3028093C20283E00E949D030197DF
:1015100021F460E087E00E94C6038091C2029091AE
:10152000C302019721F460E087E00E94C60368EEE1
:1015300073E080E090E00E94F6030E94C10181CD3B
:10154000CE0101960E94FD0214CE0E94C70582E4DE
:1015500092E00E94CB058EE792E00E94CB050E94AC
:10156000C70560E177E280E090E0E5CF80910E046E
:1015700090910F040C94C80BE5E6F3E013821282FD
:1015800088EE93E0A0E0B0E084839583A683B783E0
:101590002AE031E03183208325EC30E03587248751
:1015A00024EC30E03787268720EC30E0318B208B2D
:1015B00021EC30E0338B228B22EC30E0358B248B16
:1015C00026EC30E0378B268B118E128E138E148E04
:1015D000E2E0F4E01382128284839583A683B783CA
:1015E0008AE191E09183808380E6809315041092D4
:1015F00014046EE972E08EE094E00C943003991BC1
:1016000079E004C0991F961708F0961B881F7A95F9
:10161000C9F780950895A1E21A2EAA1BBB1BFD01F4
:101620000DC0AA1FBB1FEE1FFF1FA217B307E407C1
:10163000F50720F0A21BB30BE40BF50B661F771F19
:10164000881F991F1A9469F76095709580959095F9
:101650009B01AC01BD01CF010895EE0FFF1F059066
:10166000F491E02D0994CF93DF938230910510F42B
:1016700082E090E0E0911804F091190420E030E05D
:10168000C0E0D0E0309711F14081518148175907EF
:10169000C0F04817590761F482819381209719F0AF
:1016A0009B838A832BC0909319048093180426C0CF
:1016B0002115310519F04217530718F49A01BE019C
:1016C000DF01EF010280F381E02DDCCF2115310530
:1016D00009F1281B390B2430310590F412968D91B5
:1016E0009C9113976115710521F0FB01938382830F
:1016F00004C09093190480931804FD01329644C0ED
:10170000FD01E20FF31F81939193225031092D9334
:101710003C933AC02091160430911704232B41F4D6
:101720002091020130910301309317042093160495
:1017300020910001309101012115310541F42DB7AF
:101740003EB74091040150910501241B350BE091F7
:101750001604F0911704E217F307A0F42E1B3F0BB9
:101760002817390778F0AC014E5F5F4F2417350713
:1017700048F04E0F5F1F5093170440931604819357
:10178000919302C0E0E0F0E0CF01DF91CF910895A6
:101790000F931F93CF93DF93009709F48CC0FC0144
:1017A00032971382128200911804109119040115C6
:1017B000110581F420813181820F931F209116043D
:1017C000309117042817390779F5F0931704E0933F
:1017D000160471C0D80140E050E0AE17BF0750F4C6
:1017E00012962D913C911397AD012115310509F108
:1017F000D901F3CF9D01DA013383228360817181A6
:10180000860F971F8217930769F4EC0128813981AD
:10181000260F371F2E5F3F4F318320838A819B81A4
:1018200093838283452B29F4F0931904E0931804E1
:1018300042C01396FC93EE931297ED014991599192
:101840009E01240F351FE217F30771F48081918107
:10185000840F951F029611969C938E93828193819B
:1018600013969C938E931297E0E0F0E0D8011296C5
:101870008D919C911397009719F0F8018C01F6CF88
:101880008D919C9198012E5F3F4F820F931F209165
:101890001604309117042817390769F4309729F492
:1018A000109219041092180402C01382128210932D
:1018B000170400931604DF91CF911F910F910895A3
:1018C000A0E0B0E0E6E6FCE00C947F0DEC010097B0
:1018D00021F4CB010E94330BB8C0FC01E60FF71FC7
:1018E0009C0122503109E217F30708F4ACC0D9017A
:1018F0000D911C91119706171707B0F005301105CF
:1019000008F49FC0C80104978617970708F499C088
:1019100002501109061B170B019311936D937C93D1
:10192000CF010E94C80B8DC05B01A01AB10A4C0107
:10193000800E911EA0911804B091190440E050E06F
:10194000E12CF12C109709F44AC0A815B905D1F57E
:101950006D907C901197630182E0C80ED11CCA146F
:10196000DB0480F1A3014A195B096A0182E0C80E19
:10197000D11C1296BC9012971396AC91B5E0CB1681
:10198000D10440F0B282A38351834083D9016D9387
:101990007C930AC00E5F1F4FC301800F911FF90196
:1019A00091838083EB2DFA2FE114F10431F0D701FC
:1019B0001396FC93EE93129744C0F0931904E093AE
:1019C00018043FC08D919C9111974817590708F44E
:1019D000AC017D0112960D90BC91A02DB3CF8091EA
:1019E00016049091170488159905E1F446175707D6
:1019F000C8F48091000190910101009741F48DB7E6
:101A00009EB74091040150910501841B950BE81786
:101A1000F907C8F4F0931704E0931604F9017183F1
:101A200060830FC0CB010E94330B7C01009759F0FB
:101A3000A801BE010E942F0DCE010E94C80BC70154
:101A400004C0CE0102C080E090E0CDB7DEB7EEE08A
:101A50000C949B0D81E090E0F8940C94B20DFB0186
:101A6000DC0102C001900D9241505040D8F708951A
:101A7000FB01DC0101900D920020E1F708951F9316
:101A8000FC0199278827BC01E89411911032E9F3F1
:101A9000193010F01E30C8F31B3251F01D3249F4DA
:101AA000689406C00E94660D610F711D811D911D15
:101AB000119110531A30B0F33EF4909580957095C3
:101AC00061957F4F8F4F9F4F1F910895592F482F3A
:101AD000372F262F660F771F881F991F660F771FD6
:101AE000881F991F620F731F841F951F660F771F32
:101AF000881F991F08952F923F924F925F926F9285
:101B00007F928F929F92AF92BF92CF92DF92EF928D
:101B1000FF920F931F93CF93DF93CDB7DEB7CA1B0E
:101B2000DB0B0FB6F894DEBF0FBECDBF09942A8839
:101B3000398848885F846E847D848C849B84AA84E1
:101B4000B984C884DF80EE80FD800C811B81AA816E
:101B5000B981CE0FD11D0FB6F894DEBF0FBECDBF39
:101B6000ED01089510E0C2E6D0E004C0FE010E943D
:0E1B70002D0B2196C336D107C9F7F894FFCF8D
:101B7E0000001A048000000000005801D40021016A
:101B8E00FF0013019F0100000000A70277026F0201
:101B9E005B024C024B0241707220313120323032E6
:101BAE00300032333A33393A353100636C6F636B40
:101BBE00207365747570207375636365737300703D
:101BCE006C6561736520656E74657220746865203E
:101BDE00686F75722073657474696E6700686F75CF
:101BEE00722073657474696E67206572726F722CE1
:101BFE0020706C65617365207265646F2074686512
:101C0E0020686F75722073657474696E6700686FF3
:101C1E0075722073657474696E6720746F206265C7
:101C2E0020002C706C6561736520656E7465722082
:101C3E00746865206D696E7574652073657474695A
:101C4E006E67006D696E7574652073657474696E68
:101C5E0067206572726F722C20706C6561736520DF
:101C6E007265646F20746865206D696E7574652089
:101C7E0073657474696E67006D696E757465207333
:101C8E00657474696E6720746F2062652000636CE2
:101C9E006F636B2073657420737563636573732C48
:101CAE00204E6F2E3320636C6F636B206973206F31
:101CBE006E00746970733A2072656D6F766520746C
:101CCE006865207468696E67732066726F6D205048
:101CDE0049522073656E736F7220736F2074686142
:101CEE007420636C6F636B20776F726B7300796F08
:101CFE007520686176652031307320746F20646FB3
:101D0E00207468652072656D6F7665000D0A00009F
:00000001FF
