:100000000C9463000C948B000C948B000C948B006C
:100010000C948B000C948B000C948B000C948B0034
:100020000C948B000C948B000C948B000C948B0024
:100030000C948B000C948B000C948B000C948B0014
:100040000C9407040C948B000C9442030C941C0336
:100050000C948B000C948B000C948B000C948B00F4
:100060000C9451040C948B00000000002500280023
:100070002B0000000000240027002A0000000000E0
:1000800023002600290004040404040404040202DA
:100090000202020203030303030301020408102007
:1000A0004080010204081020010204081020000012
:1000B0000008000201000003040700000000000027
:1000C0000000960A900A11241FBECFEFD8E0DEBFD1
:1000D000CDBF12E0A0E0B1E0E2E3FBE102C0059099
:1000E0000D92A634B107D9F723E0A6E4B2E001C02F
:1000F0001D92A03CB207E1F710E0C2E6D0E004C0D8
:100100002197FE010E94070BC136D107C9F70E9453
:100110006A060C948C0D0C9400000E94040DEF9262
:10012000FF920F931F93CF93DF93FC0124813581BE
:100130006115710511F480E019C041155105A9F050
:100140007B01EC018A01020F131FB8010E94CE024D
:10015000882389F3288139818C819D81B701820FA1
:10016000931F0E94120D1D830C8381E0DF91CF91BC
:100170001F910F91FF90EF900895EF92FF920F93D0
:100180001F93CF93DF93EC017B018A01BA010E9498
:10019000CE02811104C0CE010E94F50207C01D836A
:1001A0000C83B701888199810E94120DCE01DF91E5
:1001B000CF911F910F91FF90EF900895CF93DF9310
:1001C000EC01FB018617970761F060817181611571
:1001D000710529F0448155810E94BD0002C00E9432
:1001E000F502CE01DF91CF910895CF92DF92EF9289
:1001F000FF920F931F93CF93DF936C017A018B01D2
:10020000C0E0D0E0CE15DF0589F0D8016D918D01F9
:10021000D601ED91FC910190F081E02DC601099588
:10022000892B11F47E0102C02196ECCFC701DF912A
:10023000CF911F910F91FF90EF90DF90CF90089595
:10024000FC01918D828D981761F0828DDF01A80FDE
:10025000B11D5D968C91928D9F5F9F73928F90E000
:1002600008958FEF9FEF0895FC01918D828D98176F
:1002700031F0828DE80FF11D858D90E008958FEFAC
:100280009FEF0895FC01918D228D892F90E0805C75
:100290009F4F821B91098F73992708958BE093E0FC
:1002A0000E94420121E0892B09F420E0822F089569
:1002B000FC01848DDF01A80FB11DA35ABF4F2C9103
:1002C000848D90E001968F739927848FA689B789D2
:1002D0002C93A089B1898C9180648C93938D848DAB
:1002E000981306C00288F389E02D80818F7D80837A
:1002F0000895EF92FF920F931F93CF93DF93EC013A
:1003000081E0888F9B8D8C8D981305C0E889F989D1
:10031000808185FD24C0F62E0B8D10E00F5F1F4FEE
:100320000F731127E02E8C8DE8120CC00FB607FC5E
:10033000FACFE889F989808185FFF5CFCE010E9447
:100340005801F1CF8B8DFE01E80FF11DE35AFF4FED
:10035000F0820B8FEA89FB898081806207C0EE8979
:10036000FF896083E889F98980818064808381E0E6
:1003700090E0DF91CF911F910F91FF90EF90089542
:10038000CF93DF93EC01888D8823C9F0EA89FB893C
:10039000808185FD05C0A889B9898C9186FD0FC033
:1003A0000FB607FCF5CF808185FFF2CFA889B98908
:1003B0008C9185FFEDCFCE010E945801E7CFDF91F0
:1003C000CF91089580E090E0892B29F00E944E01A2
:1003D00081110C94000008953FB7F8948091BC02FD
:1003E0009091BD02A091BE02B091BF0226B5A89B1C
:1003F00005C02F3F19F00196A11DB11D3FBFBA2FB7
:10040000A92F982F8827820F911DA11DB11DBC0116
:10041000CD0142E0660F771F881F991F4A95D1F7DB
:10042000089585ED8093BC008091BC0084FDFCCFD5
:100430001092E602089540919202262F30E0240F98
:10044000311D21323105DCF42091E6022430C9F45B
:10045000FC0180E090E0861758F4309192022191DF
:10046000DC01A059BD4FA30FB11D2C930196F3CF12
:1004700080919202680F6093920280E0089581E07B
:10048000089582E008950895E09147028091460220
:10049000E81730F4F0E0E85BFD4F808190E00895CC
:1004A0008FEF9FEF08959091470280914602981731
:1004B00050F4E92FF0E0E85BFD4F208130E09F5FD2
:1004C0009093470202C02FEF3FEFC901089580913A
:1004D000460290E020914702821B91090895CF9235
:1004E000DF92EF92FF920F931F93CF93DF937C01E4
:1004F000262F972F8A018091E702882391F0C62F3B
:10050000D72F6E01C40ED51ECC15DD0571F0699193
:10051000D701ED91FC910190F081E02DC701099583
:10052000F3CF642F822F0E941B02C801DF91CF916D
:100530001F910F91FF90EF90DF90CF900895CF9390
:10054000DF931F92CDB7DEB769832091E7022223A4
:10055000D1F020910A03203240F021E030E0FC018C
:100560003383228380E090E015C08091E802E82F79
:10057000F0E0E751FD4F998190838F5F8093E8020F
:1005800080930A0305C061E0CE0101960E941B0220
:1005900081E090E00F90DF91CF9108950F931F932A
:1005A000CF93DF93EC0188819981009729F02A810C
:1005B0003B812617370788F48B016F5F7F4F0E94BE
:1005C0003A0C009761F0998388831B830A832C81FE
:1005D0003D81232B11F4FC01108281E001C080E0F9
:1005E000DF91CF911F910F910895CF93DF93EC018D
:1005F00088819981009711F00E94A20B19821882BC
:100600001D821C821B821A82DF91CF910895FC010A
:100610001182108213821282158214826115710573
:1006200051F0FB0101900020E9F73197AF01461B23
:10063000570B0C94BD0008951F920F920FB60F92A6
:1006400011242F933F934F935F936F937F938F93D7
:100650009F93AF93BF93EF93FF938BE093E00E9440
:100660005801FF91EF91BF91AF919F918F917F9131
:100670006F915F914F913F912F910F900FBE0F900F
:100680001F9018951F920F920FB60F9211242F935F
:100690008F939F93EF93FF93E0911B03F0911C03C3
:1006A0008081E0912103F091220382FD12C09081AC
:1006B000809124038F5F8F7320912503821751F05F
:1006C000E0912403F0E0E55FFC4F958F80932403D5
:1006D00001C08081FF91EF919F918F912F910F9099
:1006E0000FBE0F901F901895833081F028F4813051
:1006F00099F08230A1F008958730A9F08830B9F0E0
:100700008430D1F4809180008F7D03C0809180007F
:100710008F7780938000089584B58F7702C084B569
:100720008F7D84BD08958091B0008F7703C0809144
:10073000B0008F7D8093B00008951F93CF93DF9317
:10074000282F30E0F901E255FF4F8491F901E65678
:10075000FF4FD491F901EA57FF4FC491CC23C9F060
:10076000162F81110E947403EC2FF0E0EE0FFF1F93
:10077000E859FF4FA591B4918FB7F894111105C0B6
:100780009C91ED2FE095E92302C0EC91ED2BEC93C9
:100790008FBFDF91CF911F9108958F929F92AF925B
:1007A000BF92CF92DF92EF92FF926B017C010E9489
:1007B000EC014B015C01C114D104E104F104F1F03E
:1007C0000E94EC01DC01CB0188199909AA09BB0937
:1007D000883E9340A105B10570F321E0C21AD1080B
:1007E000E108F10888EE880E83E0981EA11CB11C78
:1007F000C114D104E104F10419F7DDCFFF90EF90AB
:10080000DF90CF90BF90AF909F908F9008951F92F0
:100810000F920FB60F9211242F933F938F939F93B4
:10082000AF93BF938091B8029091B902A091BA02A0
:10083000B091BB023091B70223E0230F2D3720F493
:100840000196A11DB11D05C026E8230F0296A11D2A
:10085000B11D2093B7028093B8029093B902A09380
:10086000BA02B093BB028091BC029091BD02A091EC
:10087000BE02B091BF020196A11DB11D8093BC02C2
:100880009093BD02A093BE02B093BF02BF91AF91FF
:100890009F918F913F912F910F900FBE0F901F90BE
:1008A00018951F920F920FB60F9211242F933F931A
:1008B0004F935F936F937F938F939F93AF93BF9368
:1008C000EF93FF938091B900887F803609F49CC034
:1008D00068F5883209F45BC090F4803109F454C0A3
:1008E00038F4882309F4F6C0883009F44DC0F6C006
:1008F000883109F44CC0803209F45DC0EFC0803407
:1009000009F468C048F4803309F455C0883309F00D
:10091000E5C08093E402D8C0803509F44FC0883523
:1009200009F45DC0883409F0D9C0D6C0883909F40B
:10093000C7C0A8F4883709F467C038F4883609F4CA
:1009400063C0803709F460C0C9C0883809F4B8C0F2
:10095000803909F45FC0803809F0C0C05BC0803BBB
:1009600009F486C038F4803A09F466C0883A09F47C
:100970007FC0B4C0803C09F4A7C0883C09F4A4C07F
:10098000883B09F48AC0AAC08091C10210C090912E
:10099000E3028091E202981770F5E091E30281E0B2
:1009A0008E0F8093E302F0E0EE53FD4F8081809341
:1009B000BB0085EC86C08093E4028EC0E091E30228
:1009C00081E08E0F8093E3028091BB00F0E0EE5354
:1009D000FD4F80839091E3028091E2026EC0E0912E
:1009E000E30281E08E0F8093E3028091BB00F0E090
:1009F000EE53FD4F80838091E50281116DC081E04F
:100A00008093C00284EA61C083E08093E602109282
:100A1000B602CFCF8091B602803208F051C0E0918B
:100A2000B60281E08E0F8093B6028091BB00F0E0A9
:100A3000EA56FD4F8083BDCF85EC8093BC001092B9
:100A4000E6028091B602803230F4E091B602F0E026
:100A5000EA56FD4F10826091B60270E0E091940278
:100A6000F091950286E992E009951092B60236C09F
:100A700084E08093E6021092930210929202E09139
:100A80009002F0919102099580919202811105C026
:100A900081E08093920210927002E091930281E0D3
:100AA0008E0F80939302F0E0E059FD4F8081809398
:100AB000BB009091930280919202981708F479CF2D
:100AC00085E88093BC000AC085EC8093BC0010923E
:100AD000E60204C01092E4020E941102FF91EF911D
:100AE000BF91AF919F918F917F916F915F914F9146
:100AF0003F912F910F900FBE0F901F901895FC0102
:100B0000908190539A3008F090E0818180532AE0E0
:100B1000929F800D11240895009769F0FC010190C7
:100B20000020E9F73197AF01481B590BBC018BE05E
:100B300093E00C94F50080E090E00895CF93DF936C
:100B40000E948C05EC0182E492E00E948C058C0FDF
:100B50009D1FDF91CF91089520910A039091090381
:100B6000213208F04AC08091E6028111FCCF32E0C8
:100B70003093E60231E03093E5023FEF3093E40238
:100B80001092E3022093E202A9EEB2E042EC52E0BE
:100B9000FA013E2F341B321718F43D913193F9CFEF
:100BA0001092C1022091C102990F922B9093C10221
:100BB0009091C002913061F41092C0029091C102F4
:100BC0009093BB009091BC0093FDF8CF95EC01C0D1
:100BD00095EE9093BC009091E6029230E1F39091F3
:100BE000E4029F3F79F08091E402803241F08091ED
:100BF000E402803331F084E005C081E003C082E08C
:100C000001C083E01092E80210920A031092E702FA
:100C100008958F929F92AF92BF920F931F93CF939D
:100C2000DF93CDB7DEB7A1970FB6F894DEBF0FBE46
:100C3000CDBF19A2423008F44AE08E010F5D1F4F6C
:100C4000842E912CA12CB12CA50194010E94E50ABF
:100C5000E62FB901CA0101501109EA3014F4E05D30
:100C600001C0E95CD801EC93232B242B252B61F7E1
:100C7000C8010E948C05A1960FB6F894DEBF0FBE86
:100C8000CDBFDF91CF911F910F91BF90AF909F90FB
:100C90008F900895E0910B03F0910C030190F08187
:100CA000E02D682F8BE093E00994CF93DF93FC0154
:100CB00044815581608171818BE093E00E94F50051
:100CC000EC0182E492E00E948C058C0F9D1FDF9165
:100CD000CF910895CF93DF93CDB7DEB72B970FB6A3
:100CE000F894DEBF0FBECDBF789484B5826084BD1A
:100CF00084B5816084BD85B5826085BD85B5816020
:100D000085BD80916E00816080936E00109281009D
:100D10008091810082608093810080918100816058
:100D20008093810080918000816080938000809119
:100D3000B10084608093B1008091B00081608093A5
:100D4000B00080917A00846080937A0080917A006C
:100D5000826080937A0080917A00816080937A002B
:100D600080917A00806880937A001092C100E1EA55
:100D7000F0E02491EDE8F0E08491882399F090E090
:100D8000880F991FFC01EE58FF4FA591B491FC010B
:100D9000E859FF4F859194918FB7F894EC91E22B2D
:100DA000EC938FBF60E087E00E949D030DE910E0A7
:100DB000F801249149E8E42E40E0F42EF7018491F3
:100DC0008823C9F090E0880F991FFC01EE58FF4F6F
:100DD000A591B491FC01E859FF4F459154913FB75B
:100DE000F8949C91822F809598239C93FA0190818E
:100DF000892380833FBF10924702109246021092CF
:100E0000E80210920A031092E602CC24C394C09226
:100E1000E5021092C00261E082E10E949D0361E060
:100E200083E10E949D038091B9008E7F8093B90079
:100E30008091B9008D7F8093B90088E48093B800D9
:100E400085E48093BC008FE291E00E947F05D82E5C
:100E50008AE291E00E947F05B82E82E391E00E9431
:100E60007F05A82E85E391E00E947F05982E88E3F8
:100E700091E00E947F05882EC092E70288E6809369
:100E800009031092E80210920A0360E088EA93E0F6
:100E90000E949F02AAE0CA2E882D6C2D0E94D90ABA
:100EA000482F880F480F440F642F680D88EA93E09D
:100EB0000E949F02892D6C2D0E94D90A382F880F1D
:100EC000380F330F632F690D88EA93E00E949F0269
:100ED0008A2D6C2D0E94D90A282F880F280F220FE7
:100EE000622F6A0D88EA93E00E949F0260E088EA20
:100EF00093E00E949F028B2D6C2D0E94D90A982F9F
:100F0000880F980F990F692F6B0D88EA93E00E9464
:100F10009F0264E088EA93E00E949F028D2D6C2D71
:100F20000E94D90A682F660F680F660F6D0D88EA58
:100F300093E00E949F0260E088EA93E00E949F0293
:100F40000E94AC0510926F0210926E028FEF9FEF1D
:100F500090936D0280936C0290936B0280936A026F
:100F6000E0911B03F0911C0382E08083E091170362
:100F7000F09118031082E0911903F0911A038FEC9D
:100F8000808310922303E0911F03F091200386E0F9
:100F90008083E0911D03F0911E0380818061808336
:100FA000E0911D03F0911E03808188608083E091B1
:100FB0001D03F0911E03808180688083E0911D03F2
:100FC000F0911E0380818F7D80838BE391E00E94EE
:100FD0009E058FE491E00E949E0522242394B8E4AC
:100FE0006B2EB2E07B2E81EBA82E80E0B82E9AE526
:100FF000892E912CCC24CA94DC2C80916E02909185
:101000006F02892B09F032C140E050E064E472E0E5
:1010100084EB93E00E94BD0080916C0290916D0280
:10102000019609F092C08BE093E00E9442011816ED
:1010300019060CF08AC08BE093E00E94420118165A
:101040001906A4F58BE093E00E942001582E1A8225
:1010500019821C821B821E821D8264EB73E0CE010A
:1010600001960E94DE005F82188641E050E0BE01DA
:10107000695F7F4FCE0101960E948F00811104C0ED
:10108000CE0101960E94F502BE016F5F7F4F84EB97
:1010900093E00E94DE0089819A810E94A20B63E0A6
:1010A00070E080E090E00E94CD03C5CF8091B40352
:1010B0009091B503009719F00E94190D03C060E0EC
:1010C00070E0CB0170936D0260936C026831710522
:1010D00048F0D0926D02C0926C028DE691E00E94C1
:1010E0009E052BC06EE971E0CE0101960E940703B8
:1010F0004091B8035091B9036091B4037091B50366
:10110000CE0101960E948F00811104C0CE0101968C
:101110000E94F50240E250E062EB71E0CE010196E0
:101120000E948F00882309F4F1C1CE0101960E942C
:10113000550689819A810E94A20B40E050E064E448
:1011400072E084EB93E00E94BD0080916A0290916E
:101150006B02019609F0D7C18BE093E00E94420137
:10116000181619060CF0CFC18BE093E00E944201E3
:1011700018161906A4F58BE093E00E942001582E62
:101180001A8219821C821B821E821D8264EB73E00C
:10119000CE0101960E94DE005F82188641E050E099
:1011A000BE01695F7F4FCE0101960E948F008111C1
:1011B00004C0CE0101960E94F502BE016F5F7F4F11
:1011C00084EB93E00E94DE0089819A810E94A20B49
:1011D00063E070E080E090E00E94CD03C5CF809195
:1011E000B4039091B503009719F00E94190D03C044
:1011F00060E070E0CB0170936B0260936A026C3325
:10120000710548F0D0926B02C0926A0283ED91E0C2
:101210000E949E0578C168E072E0CE0101960E94AE
:1012200007034091B8035091B9036091B4037091E2
:10123000B503CE0101960E948F00811104C0CE013A
:1012400001960E94F502CE0101960E945506898101
:101250009A810E94A20B8EE192E00E949E0581E09D
:1012600090E090936F0280936E024DC12092E7024E
:1012700088E6809309031092E80210920A0360E066
:1012800088EA93E00E949F020E94AC058091E602EA
:101290008111FCCF2092E6022092E502EFEFE0936D
:1012A000E4021092E30286E08093E2022092C102FF
:1012B0008091C102806D8093C1028091C002813013
:1012C00061F41092C0028091C1028093BB008091B2
:1012D000BC0083FDF8CF85EC01C085EE8093BC0097
:1012E0008091E6028130E1F38091E302873018F4C7
:1012F0008091E30201C087E0A2ECB2E0E8E4F2E012
:101300009E2F9619981718F49D919193F9CF1092EA
:1013100047028093460288EA93E00E945302AC01A0
:10132000552794E0559547959A95E1F72AEF322E87
:10133000282F349E200D112488EA93E02B870E94E9
:101340005302AC01552734E0559547953A95E1F79E
:10135000582E349E500C112488EA93E00E945302C8
:10136000AC01552764E0559547956A95E1F7482EFD
:10137000349E400C112488EA93E00E94530288EACC
:1013800093E00E945302AC01552774E055954795B0
:101390007A95E1F7382F349E300D112488EA93E0D6
:1013A0003A870E945302AC015527E4E055954795D2
:1013B000EA95E1F7582F349E500D112488EA93E006
:1013C00059870E945302BC017727F4E07595679511
:1013D000FA95E1F7369E800D1124682F70E0605376
:1013E000784F072E000C880B990B4AE00E940906E3
:1013F0008FE20E944A065985652F70E080E090E0F8
:101400004AE00E9409068FE20E944A063A85632F4D
:1014100070E080E090E04AE00E94090680E20E94CD
:101420004A06642D70E080E090E04AE00E940906E0
:101430008AE30E944A06652D70E080E090E04AE071
:101440000E9409068AE30E944A062B85622F70E0FB
:1014500080E090E04AE00E94090682E492E00E9467
:101460008C058091680290916902892BD1F4842DBA
:1014700090E020916C0230916D028217930789F4FD
:10148000852D90E020916A0230916B0282179307BC
:1014900041F4909269028092680261E087E00E94C4
:1014A0009D03809168029091690218161906DCF478
:1014B00001979093690280936802F5018491F80185
:1014C0005490F7014490442071F081110E947403FC
:1014D000E42DF0E0EE0FFF1FE458FF4FA591B4910B
:1014E0008C915822C1F48091680290916902019711
:1014F00021F460E087E00E949D0368EE73E080E0E5
:1015000090E00E94CD030E94E20177CDCE010196CA
:101510000E94F5020ACE60E087E00E949D03E3CFBF
:101520008091B4039091B5030C94A20BEBE0F3E02F
:101530001382128288EE93E0A0E0B0E0848395836A
:10154000A683B7832AE031E03183208325EC30E0A5
:101550003587248724EC30E03787268720EC30E07D
:10156000318B208B21EC30E0338B228B22EC30E06E
:10157000358B248B26EC30E0378B268B118E128E28
:10158000138E148EE8EAF3E013821282848395832B
:10159000A683B7838AE191E09183808380E680937C
:1015A000BB031092BA0364E472E084EB93E00C9402
:1015B0000703991B79E004C0991F961708F0961B42
:1015C000881F7A95C9F780950895A1E21A2EAA1B63
:1015D000BB1BFD010DC0AA1FBB1FEE1FFF1FA217E3
:1015E000B307E407F50720F0A21BB30BE40BF50BE0
:1015F000661F771F881F991F1A9469F76095709569
:10160000809590959B01AC01BD01CF010895EE0F2F
:10161000FF1F0590F491E02D0994CF93DF93823062
:10162000910510F482E090E0E091BE03F091BF03D9
:1016300020E030E0C0E0D0E0309711F140815181EE
:1016400048175907C0F04817590761F48281938100
:10165000209719F09B838A832BC09093BF038093BC
:10166000BE0326C02115310519F04217530718F49F
:101670009A01BE01DF01EF010280F381E02DDCCF92
:101680002115310509F1281B390B2430310590F45F
:1016900012968D919C9113976115710521F0FB01B4
:1016A0009383828304C09093BF038093BE03FD01A4
:1016B000329644C0FD01E20FF31F819391932250B3
:1016C00031092D933C933AC02091BC033091BD0366
:1016D000232B41F420910201309103013093BD038B
:1016E0002093BC03209100013091010121153105A7
:1016F00041F42DB73EB74091040150910501241BE0
:10170000350BE091BC03F091BD03E217F307A0F4A1
:101710002E1B3F0B2817390778F0AC014E5F5F4F47
:101720002417350748F04E0F5F1F5093BD034093B9
:10173000BC038193919302C0E0E0F0E0CF01DF9120
:10174000CF9108950F931F93CF93DF93009709F4E0
:101750008CC0FC013297138212820091BE0310915B
:10176000BF030115110581F420813181820F931F80
:101770002091BC033091BD032817390779F5F09308
:10178000BD03E093BC0371C0D80140E050E0AE1748
:10179000BF0750F412962D913C911397AD0121157E
:1017A000310509F1D901F3CF9D01DA013383228399
:1017B00060817181860F971F8217930769F4EC018E
:1017C00028813981260F371F2E5F3F4F31832083B9
:1017D0008A819B8193838283452B29F4F093BF03F5
:1017E000E093BE0342C01396FC93EE931297ED0173
:1017F000499159919E01240F351FE217F30771F4A7
:1018000080819181840F951F029611969C938E93EF
:101810008281938113969C938E931297E0E0F0E07F
:10182000D80112968D919C911397009719F0F801A9
:101830008C01F6CF8D919C9198012E5F3F4F820FC6
:10184000931F2091BC033091BD032817390769F419
:10185000309729F41092BF031092BE0302C0138286
:1018600012821093BD030093BC03DF91CF911F91AF
:101870000F910895A0E0B0E0E0E4FCE00C94590D75
:10188000EC01009721F4CB010E940D0BB8C0FC01C4
:10189000E60FF71F9C0122503109E217F30708F405
:1018A000ACC0D9010D911C91119706171707B0F024
:1018B0000530110508F49FC0C801049786179707E3
:1018C00008F499C002501109061B170B01931193DC
:1018D0006D937C93CF010E94A20B8DC05B01A01A77
:1018E000B10A4C01800E911EA091BE03B091BF03BE
:1018F00040E050E0E12CF12C109709F44AC0A81503
:10190000B905D1F56D907C901197630182E0C80E06
:10191000D11CCA14DB0480F1A3014A195B096A01D6
:1019200082E0C80ED11C1296BC9012971396AC910F
:10193000B5E0CB16D10440F0B282A383518340833B
:10194000D9016D937C930AC00E5F1F4FC301800FB6
:10195000911FF90191838083EB2DFA2FE114F1049B
:1019600031F0D7011396FC93EE93129744C0F09395
:10197000BF03E093BE033FC08D919C911197481720
:10198000590708F4AC017D0112960D90BC91A02D71
:10199000B3CF8091BC039091BD0388159905E1F404
:1019A00046175707C8F480910001909101010097F4
:1019B00041F48DB79EB74091040150910501841BFD
:1019C000950BE817F907C8F4F093BD03E093BC0347
:1019D000F901718360830FC0CB010E940D0B7C0164
:1019E000009759F0A801BE010E94090DCE010E9486
:1019F000A20BC70104C0CE0102C080E090E0CDB7C9
:101A0000DEB7EEE00C94750D81E090E0F8940C9454
:101A10008C0DFB01DC0102C001900D924150504041
:101A2000D8F70895FB01DC0101900D920020E1F749
:101A300008951F93FC0199278827BC01E894119110
:101A40001032E9F3193010F01E30C8F31B3251F098
:101A50001D3249F4689406C00E94400D610F711D4B
:101A6000811D911D119110531A30B0F33EF49095E1
:101A70008095709561957F4F8F4F9F4F1F9108956F
:101A8000592F482F372F262F660F771F881F991F32
:101A9000660F771F881F991F620F731F841F951F82
:101AA000660F771F881F991F08952F923F924F92BC
:101AB0005F926F927F928F929F92AF92BF92CF92DE
:101AC000DF92EF92FF920F931F93CF93DF93CDB7E7
:101AD000DEB7CA1BDB0B0FB6F894DEBF0FBECDBF5F
:101AE00009942A88398848885F846E847D848C8430
:101AF0009B84AA84B984C884DF80EE80FD800C8139
:101B00001B81AA81B981CE0FD11D0FB6F894DEBF1B
:101B10000FBECDBFED01089510E0C2E6D0E004C0D5
:101B2000FE010E94070B2196C336D107C9F7F8942E
:021B3000FFCFE5
:101B32000000C0038000000000007901F5004201AE
:101B420020013401C001000000009F026F02670201
:101B5200530244024302417072203131203230324A
:101B6200300032333A30313A353800636C6F636B90
:101B72002073657475702073756363657373007089
:101B82006C6561736520656E74657220746865208A
:101B9200686F75722073657474696E6700686F751B
:101BA200722073657474696E67206572726F722C2D
:101BB20020706C65617365207265646F207468655E
:101BC20020686F75722073657474696E6700686F40
:101BD20075722073657474696E6720746F20626514
:101BE20020002C706C6561736520656E74657220CF
:101BF200746865206D696E757465207365747469A7
:101C02006E67006D696E7574652073657474696EB4
:101C120067206572726F722C20706C65617365202B
:101C22007265646F20746865206D696E75746520D5
:101C320073657474696E67006D696E75746520737F
:101C4200657474696E6720746F2062652000636C2E
:101C52006F636B2073657420737563636573732C94
:101C6200204E6F2E3320636C6F636B206973206F7D
:061C72006E000D0A0000E7
:00000001FF
